:040000000200623266
:01000B0032C2
:0100130032BA
:01001B0032B2
:0100230032AA
:03002B000204E9E3
:0300E20002002EEB
:03002E000200E5E8
:1000E50012056E12035890144675F080120388901D
:0300F500000022E6
:0E14460048656C6C6F20576F726C64210A0051
:0600B200E478FFF6D8FD22
:10006F007909E94400601B7A0190149878C775A04C
:10007F0000E493F2A308B8000205A0D9F4DAF275F0
:02008F00A0FFD0
:1000B8007800E84400600A790175A000E4F309D8E3
:1000C800FC78C6E84400600C7901900001E4F0A3D4
:0400D800D8FCD9FA7D
:1000F80090000F12078E7582031205EB900005120F
:10010800078E7582031205EB7582031205EB758263
:10011800031205EB75822012061675820112061667
:1001280075820C120616758201020616E582900089
:1001380024F0FF6005BF0118800B900023E02480A5
:10014800F582020616900023E024C0F58202061606
:1001580022E582900028F0C40354F82440F5821266
:100168000616900025E0FDA3E0FEA3E0FF7C088DC5
:10017800828E838FF0120574FBA3AD82AE838B82CF
:10018800C007C006C005C0041205C3D004D005D0FE
:1001980006D007DCDA227E017F00C3EE9402EF640A
:1001A80080948050548E051DEDC454F02403FDE462
:1001B8003400FC7B008E01EFC454F0C9C4C969C97E
:1001C80054F0C969FAE92403F9EA3400FA900033D3
:1001D800E9F0A3EAF0A3E4F09000367410F0A3E489
:1001E800F08D828C838BF0C007C00612044DD006B8
:1001F800D0070EBE00A40F80A19000307420F090AC
:1002080000317410F0A3E4F090001375F0000204BC
:10021800257E007F00C3EE9402EF64809480506FC7
:100228008E05900023E4F08D82C007C006120134C9
:10023800D006D0078E04EFC454F0CCC4CC6CCC5498
:10024800F0CC6CFD7A007B00C3EA9410EB648094D8
:10025800805035EC2403F8ED3400F9EA28F582EBF8
:1002680039F583E0F582C007C006C005C004C003A5
:10027800C0021205C3D002D003D004D005D006D0E6
:10028800070ABA00C30B80C00EBE00890F80862201
:1002980075820C120616120219900001E0FF9000F8
:1002A80002E0900023F08F8212013475820D02065D
:1002B80016900001E02401F0900001E0FFC3648083
:1002C8009482400912019E9000017401F022E58297
:1002D800900029F0900001E0C454F02403FFE434B6
:1002E80000FE900002E0FD2FFFE43EFE900029E0B2
:1002F800FC8F828E83F0900002ED04F0900002E003
:10030800FFC3648094904008900002E4F00202B9B0
:1003180022E58290002AF0FFBF09028016BF0A0278
:100328008009BF0D26900002E4F022900002E4F05C
:100338000202B97582201202D67582201202D67581
:1003480082201202D67582200202D68F820202D63D
:1003580012077C1200F8900001E4F0900002F0907F
:1003680000307420F09000317420F0A3E4F0900085
:100378000375F0001204250202981203190202986C
:10038800AFF0AE83E58290002BF0A3EEF0A3EFF080
:1003980090002BE0FDA3E0FEA3E0FF7B007C00EBD8
:1003A8002DF8EC3EF98F02888289838AF012057451
:1003B800FA60208A82C007C006C005C004C00312C4
:1003C8000319D003D004D005D006D0070BBB00CF4B
:1003D8000C80CC020298E58290002FF0FF9000017B
:1003E800F090002EE0FE900002F0900023EEF08FD7
:1003F800820201349000307420F09000317420F0B3
:10040800A3E4F090000375F0001204257582011230
:0D041800061690002EE4F07582000203DE4F
:02145400100284
:10042500AC82AD83900031E0FEA3E0FFBE00036027
:10043500121F0F900030E08C828D83120F95A3DE82
:10044500FADFF88C828D8322AFF0AE83E5829000CF
:1004550038F0EEA3F0EFA3F0900038E0F513A3E039
:10046500F514A3E0F515AA13AB14AC15900033E011
:10047500F8A3E0F9A3E0FF900036E0F516A3E0F558
:1004850017AD16AE17151674FFB516021517ED4EF6
:100495006020888289838FF0120574FEA3A882A943
:1004A500838A828B838CF0EE120F95A3AA82AB838D
:0C04B50080CF8513828514838515F0220A
:0200DC00C20060
:1004C100C2AF90003BE0FCA3E0FDA3E0FEA3E0FF90
:1004D10090003FECF0A3EDF0A3EEF0A3EFF0D2AF6C
:1004E1008C828D838EF0EF22C0E0C082C083C0D0A9
:1004F10090003BE02401F0A3E03400F0A3E03400DD
:10050100F0A3E03400F0C2CFD0D0D083D082D0E0CD
:10051100323000012275C900C2C9C2C8C2CDC2CCE5
:10052100C2CBC2CAC2CF12141C9201E433FFBF0175
:100531000E90004374F3F090004474FFF0800C902F
:10054100004374F9F090004474FFF0900043E0FF21
:100551008FCD900044E0FE8ECC8FCB8ECAD2CAD212
:10056100AFD2ADD20022758E009000002212003170
:030571000210F580
:081456002400250026002700F8
:0D006200758122120567E582600302002E01
:1005740020F71430F6148883A88220F507E6A883B0
:1005840075830022E280F7E49322E02290000112B6
:10059400078EC322E582900045F0C2A2D2A1D2A365
:1005A400900045E0C454F0900045F0FF74F05F42C1
:1005B400A043070FE5A052078FA0C2A3D2A222E551
:1005C40082900046F012059040FB900046E0FFC484
:1005D400540FFE53060F8E82C007120598D007539E
:1005E400070F8F82020598E582900047F0C2A2C2ED
:1005F400A1D2A3900047E0C454F0900047F0FF74E8
:10060400F05F42A043070FE5A052078FA0C2A3D218
:10061400A222E582900048F012059040FB90004829
:10062400E0FFC4540FFE53060F8E82C0071205EB81
:10063400D00753070F8F820205EBAF83E58290004A
:100644005DF0A3EFF090005DE0FEA3E0FF7C007D91
:1006540000C3EC9EED9F50070CBC00F50D80F22208
:100664009000597401F0A3E4F0A3F0A3F01204C1C4
:10067400AC82AD83AEF0FFC007C006C005C0041253
:1006840004C1A882A983AAF0FBD004D005D006D067
:1006940007E8B5040EE9B5050AEAB50606EBB507A1
:1006A4000280D490007F7401F0A3E4F090005F75A1
:1006B400F00012092A900059E0FCA3E0FDA3E0A396
:1006C400E08C828D8312063E90005F75F000120963
:1006D400B6402B900059E0FCA3E0FDA3E0FEA3E0AC
:1006E400FFEC2CFCED33FDEE33FEEF33FF900059AD
:1006F400ECF0A3EDF0A3EEF0A3EFF002067190008E
:1007040059E0FCA3E0FDA3E0FEA3E0C313FFEE1356
:10071400FEED13FDEC13FC900059F0A3EDF0A3EEF5
:10072400F0A3EFF090007F7401F0A3E4F090005F79
:1007340075F00012092A900059E0FCA3E0FDA3E043
:10074400A3E08C828D8312063E90005F75F0001248
:1007540009B64023900059E0FCA3E0FDA3E0FEA30A
:10076400E0FF90005974012CF0E43DA3F0E43EA3B3
:10077400F0E43FA3F080AD22120924900059E4F084
:10078400A37402F0A3E4F0A3F022AF83E582900007
:100794006FF0A3EFF090006FE0FEA3E0FF90007F06
:1007A400EEF0A3EFF090004975F00012092A9000D2
:1007B4004975F0001209B650F522AF83E582900026
:1007C40071F0A3EFF0900071E0FEA3E0FF900059F8
:1007D400E0FAA3E0FBA3E0FCA3E0FD9000B0EEF0A0
:1007E400A3EFF0A3E4F0A3F08A828B838CF0ED12E4
:1007F4000FB0AC82AD83AEF0FF90007374E8F0A349
:100804007403F0A3E4F0A3F08C828D838EF0EF12D6
:10081400081902063EAF82AE83ADF0FC900077EF7C
:10082400F0EEA3F0EDA3F0ECA3F090007BE4F0A3D2
:10083400F0A3F0A3F0900073E0FCA3E0FDA3E0FEBE
:10084400A3E0FF751320900077E0F8A3E0F9A3E09C
:10085400FAA3E0FB339202E828F8E933F9EA33FA21
:10086400EB33FB900077E8F0E9A3F0EAA3F0EBA305
:10087400F090007BE0F8A3E0F9A3E0FAA3E0FBE842
:1008840028F8E933F9EA33FAEB33FB90007BE8F01C
:10089400E9A3F0EAA3F0EBA3F030021E90007BE0A2
:1008A400F8A3E0F9A3E0FAA3E0FB90007B7401480D
:1008B400F0E9A3F0EAA3F0EBA3F090007BE0F8A347
:1008C400E0F9A3E0FAA3E0FBC3E89CE99DEA9EEB10
:1008D4009F403190007BE8C39CF0E99DA3F0EA9E21
:1008E400A3F0EB9FA3F0900077E0F8A3E0F9A3E076
:1008F400FAA3E0FB900077740148F0E9A3F0EAA3BF
:10090400F0EBA3F0D51302800302084A900077E0CD
:10091400FCA3E0FDA3E0FEA3E08C828D838EF02295
:10092400120512020A64AFF0AE83E582900081F0F2
:10093400A3EEF0A3EFF0900081E0FDA3E0FEA3E0BE
:10094400FF740B2DF508E43EF5098F0AC007C006B5
:10095400C0051204C185820B85830C85F00DF50E4C
:10096400D005D006D00790007FE0FAA3E0F9E4FBBD
:10097400FCEA250BFAE9350CF9EB350DFBEC350EE9
:10098400FC850882850983850AF0EA120F95A3E99C
:10099400120F95A3EB120F95A3EC120F95740F2D64
:1009A400FDE43EFE8D828E838FF012057454FE02A8
:1009B4000F95C012E581F5122404F581AD82AE8352
:1009C400AFF0740F2DFAE43EFB8F048A828B838C84
:1009D400F012057430E003C38050C007C006C005A0
:1009E4001204C1A81208A68208A68308A6F008F675
:1009F400D005D006D007A81208740B2DFDE43EFEE6
:100A04008D828E838FF0120574FDA3120574FEA3EC
:100A1400120574FFA3120574FCA81208C3ED96EE28
:100A24000896EF0896EC08969210851281D012224F
:100A3400AFF0AE83E582900084F0A3EEF0A3EFF074
:100A4400900084E0FDA3E0FEA3E0FF740F2DFDE41D
:100A54003EFE8D828E838FF01205744401020F9541
:0200DE00C2035B
:100A6400300301229000C7E4F0A3F0A3F0D20322E4
:100A7400AFF0AE83E58290008BF0A3EEF0A3EFF02D
:100A840090008BE0FDA3E0FEA3E0FF8D828E838FB8
:100A9400F0E4120F9574042DFAE43EFB8F049000E9
:100AA40087E0F8A3E0F98A828B838CF0E8120F9533
:100AB400A3E9120F9574062DFAE43EFB8F0490000F
:100AC40089E0F8A3E0F98A828B838CF0E8120F9511
:100AD400A3E9120F9574012DF513E43EF5148F1557
:100AE4009000C7E0F8A3E0F9A3E0FC851382851425
:100AF400838515F0E8120F95A3E9120F95A3EC1264
:100B04000F959000C7EDF0A3EEF0A3EFF022AFF045
:100B1400AE83E582900095F0A3EEF0A3EFF0900091
:100B240095E0FDA3E0FEA3E0FF8D828E838FF07439
:100B340001120F9574042DFAE43EFB8F0490008E8D
:100B4400E0F8A3E0F98A828B838CF0E8120F95A376
:100B5400E9120F9574062DFAE43EFB8F0490009081
:100B6400E0F8A3E0F98A828B838CF0E8120F95A356
:100B7400E9120F9574082DF513E43EF5148F1590C2
:100B84000092E0F8A3E0F9A3E0FC851382851483C6
:100B94008515F0E8120F95A3E9120F95A3EC120F37
:100BA4009574012DF513E43EF5148F159000C7E0FC
:100BB400F8A3E0F9A3E0FC8513828514838515F07E
:100BC400E8120F95A3E9120F95A3EC120F9590006C
:100BD400C7EDF0A3EEF0A3EFF022AFF0AE83E58211
:100BE400900098F0A3EEF0A3EFF090009EE4F0A341
:100BF400F0A3F09000C7E0FDA3E0FEA3E0FF9000A7
:100C04009BEDF0A3EEF0A3EFF0900098E0F516A3AF
:100C1400E0F517A3E0F51890009BE0FAA3E0FBA32E
:100C2400E0FCE4C0E0E4C0E0E4C0E08A828B838CB2
:100C3400F0120034158115811581700122C016C08F
:100C440017C0188A828B838CF012003415811581A9
:100C540015816002807690009EE0F513A3E0F51400
:100C6400A3E0F515E5134514702A74012AF8E43B52
:100C7400F98C07888289838FF0120574F8A3120512
:100C840074F9A3120574FF9000C7E8F0A3E9F0A378
:100C9400EFF0803874012513F8E43514F9AF150A20
:100CA400BA00010B8A828B838CF0120574FAA312AA
:100CB4000574FBA3120574FC888289838FF0EA1201
:100CC4000F95A3EB120F95A3EC120F9590009BE0E8
:100CD400FDA3E0FEA3E0FF90009EEDF0A3EEF0A3E1
:100CE400EFF00DBD00010E8D828E838FF01205741E
:100CF400FDA3120574FEA3120574FF90009BEDF092
:100D0400A3EEF0A3EFF0020C1BAFF0AE83E58290EC
:100D140000A1F0A3EEF0A3EFF09000A1E0FDA3E0AA
:100D2400FEA3E0FF8D828E838FF0020BDE9000C75E
:100D3400E0FDA3E0FEA3E0FFED4E700280FE120D85
:100D44004780FB9000C7E0FDA3E0FEA3E0FF900016
:100D5400A4EDF0A3EEF0A3EFF09000A4E0FDA3E077
:100D6400FEA3E0FFE4C0E0E4C0E0E4C0E08D828ED6
:100D7400838FF01200341581158115817001228D45
:100D8400828E838FF0120574FCBC01028003020E74
:100D9400658D028E038F048A0F8B108C11740425C9
:100DA4000FFFE43510FEAD118F828E838DF0120596
:100DB40074FFA3120574FE9000A77408250FF0E4D5
:100DC4003510A3F0A3E511F09000A7E0C0E0A3E084
:100DD400C0E0A3E0F5F0D083D082120574F8A3122A
:100DE4000574F9A3120574FCC007C0067403C0E0BF
:100DF400740EC0E0C007C006888289838CF022D0BC
:100E040006D00792044003020EC17406250FFAE4CB
:100E14003510FBAC118A828B838CF0120574FAA313
:100E2400120574FB9000A7E0C0E0A3E0C0E0A3E0DB
:100E3400F5F0D083D082120574F8A3120574F9A3D7
:100E4400120574FCC003C002745FC0E0740EC0E0FD
:100E5400C002C003888289838CF022D002D0038030
:100E64005C74042DFAE43EFB8F048A828B838CF03D
:100E7400120574FAA3120574FBC007C006C005C0AE
:100E840003C0028A828B83120032D002D003D005C1
:100E9400D006D0079204502574062DFDE43EFE8D45
:100EA400828E838FF0120574FDA3120574FEC006B2
:100EB400C0058D828E83120032D005D0069000A426
:100EC400E0FDA3E0FEA3E0FF0DBD00010E8D828EC8
:100ED400838FF0120574FDA3120574FEA31205742A
:100EE400FF9000A4EDF0A3EEF0A3EFF0020D5DAFD0
:100EF40083E5829000AAF0A3EFF09000C7E0FDA381
:100F0400E0FEA3E0FF9000ACEDF0A3EEF0A3EFF061
:100F14009000AAE0FEA3E0FF9000ACE0FBA3E0FC9D
:100F2400A3E0FDE4C0E0E4C0E0E4C0E08B828C8395
:100F34008DF0120034158115811581604D74062BD6
:100F4400F8E43CF98D02888289838AF0120574F8EA
:100F5400A3120574F9E8B5060BE9B507078B828C73
:100F6400838DF0220BBB00010C8B828C838DF012DD
:100F74000574FBA3120574FCA3120574FD9000AC68
:100F8400EBF0A3ECF0A3EDF0808E90000075F00080
:010F9400223A
:0314980000000051
:100F950020F71130F6138883A88220F509F6A88377
:100FA5007583002280FEF280F5F022A882A983AA2B
:100FB500F0FB88F09000B0E0A4FCADF089F0E0A46F
:100FC5002DFDE435F0FE88F0A3E0A42DFDE5F03E0F
:100FD500FEE433FF89F0E0A42EFEE5F03FFF88F044
:100FE500A3E0A42EFEE5F03FFF8AF09000B0E0A458
:100FF5002EFEE5F03FFF8BF0E0A42FFF8AF0A3E083
:10100500A42FFF89F0A3E0A42FFF88F0A3E0A42F6D
:101015008EF08D838C8222E5829000B6F030050239
:10102500C2909000B6E0FF7D007E009000C5EFF015
:10103500A3E4F0901388C007C006C005121426ABC0
:1010450082AC83D005D006D007C3ED9BEE64808CBF
:10105500F063F08095F050070DBD00CF0E80CC30C9
:101065000502D29022E58290145E93FFC4540FFED0
:101075007D00C3ED9E5066C0068DF005F07B017CBA
:10108500008006EB2BFBEC33FCD5F0F78F027E00DE
:10109500EA5203EE5204D006EB4C6016D205758277
:1010A50003C007C006C00512101CD005D006D00726
:1010B5008014D205758201C007C006C00512101C38
:1010C500D005D006D007C205758201C007C006C08D
:1010D5000512101CD005D006D0070D8095C20575E8
:1010E5008203C007C00612101CD006D00702107577
:1010F500121166900010121167C2069000101211AD
:1011050084D29090106A02112BE5829000B7F0FF0F
:10111500742AC0E07411C0E09000B4E0C0E0A3E020
:10112500C0E08F822222AF83E5829000B8F0A3EF62
:10113500F09000B8E0FEA3E0FF9000B4EEF0A3EF5E
:10114500F022E5829000BAF025E024CAF582E43465
:1011550000F583E0FEA3E0FF7D808E828F838DF016
:011165002267
:10145E000021484E6F206572726F72004932432030
:10146E00646576696365206E6F742070726573654E
:10147E006E74004932432064657669636520646941
:0A148E0064206E6F742061636B0030
:06149B0061146A148114C3
:101166002222AF83E5829000BBF0A3EFF09000BB94
:10117600E0FEA3E0FFD2078E828F830211A2AF8327
:10118600E5829000BDF0A3EFF09000BDE0FEA3E085
:10119600FFA20692078E828F830211A2AF83E58299
:1011A6009000BFF0A3EFF09000BFE0FEA3E0FF3099
:1011B600E70122C374379EE464808FF063F0809564
:1011C600F0500122EE240983C0E0EE243B83C0E008
:1011D60022474C51565B60656AE6E6E6E6E6E6E6D9
:1011E600E66F74797E83888D92E6E6E6E6E6E6E6C5
:1011F600E6979CA1A6ABB0B5BAE6E6E6E6E6E6E675
:10120600E6BFC4C9CED3D8DDE212121212121212F0
:1012160012121212121212121212121212121212A8
:101226001212121212121212121212121212121298
:101236001212121212121212121212121212121288
:1012460012A207928022A207928122A207928222EC
:10125600A207928322A207928422A207928522A243
:1012660007928622A207928722A207929022A207BD
:10127600929122A207929222A207929322A2079209
:101286009422A207929522A207929622A2079297EB
:1012960022A20792A022A20792A122A20792A2222C
:1012A600A20792A322A20792A422A20792A522A293
:1012B6000792A622A20792A722A20792B022A2070D
:1012C60092B122A20792B222A20792B322A2079259
:1012D600B422A20792B522A20792B622A20792B71B
:1012E60022AF83E5829000C1F0A3EFF09000C1E049
:1012F600FEA3E0FF30E7030213F0C374379EE464F5
:10130600808FF063F08095F050030213F0EE24090D
:1013160083C0E0EE243B83C0E022909396999C9F85
:10132600A2A5F0F0F0F0F0F0F0F0A8ABAEB1B4B7D3
:10133600BABDF0F0F0F0F0F0F0F0C0C3C6C9CCCF03
:10134600D2D5F0F0F0F0F0F0F0F0D8DBDEE1E4E733
:10135600EAED1313131313131313131313131313A6
:101366001313131313131313131313131313131347
:101376001313131313131313131313131313131337
:1013860013131313131313131313A28022A2812210
:10139600A28222A28322A28422A28522A28622A23D
:1013A6008722A29022A29122A29222A29322A29402
:1013B60022A29522A29622A29722A2A022A2A1222E
:1013C600A2A222A2A322A2A422A2A522A2A622A26D
:1013D600A722A2B022A2B122A2B222A2B322A2B412
:0C13E60022A2B522A2B622A2B722C32286
:0200E000D20A42
:1013F200A2AF9208C2AF43A220A9829000C3E0FA32
:101402009000C4E0FB8A838B8212FFF0F582AFA2C8
:101412005307DF8FA2A20892AF22200A03A2092259
:04142200C20AD32205
:0100310022AC
:100091007909E94400601A7A0143A2019014981584
:1000A100A29000C7E405A293A315A2F0A3D9F5DAA3
:0100B100F35B
:02003200E47375
:10142600AA83AB828BF09000C5E0A4F8A9F08AF0FD
:10143600E0A429F98BF0A3E0A429F583888222226F
:10003400E58124FCC3C8C0E0C082E608467006E53A
:10004400824583601218E58296F58208E58396421C
:0E0054008208E5F0964582D082C8D0E0C8222E
:00000001FF
