:03000000020008F3
:0300610002000397
:0500030012008B80FEDD
:0D00640075B05575A0AA7580AA759055223B
:02007100AA8261
:0500730010990280FB62
:030078008A992240
:0E007B00758920438780758BF3758DF375981A
:02008900522201
:03008B00120064FC
:05008E0012006480FB7C
:06003700E478FFF6D8FD9D
:080015007900E94400601B7A48
:05001D0000900097783F
:030022000075A0C6
:0A00250000E493F2A308B8000205FE
:08002F00A0D9F4DAF275A0FF7C
:04003D0075A0007832
:0700410000E84400600779AC
:0600480000E4F309D8FCFE
:08004E007800E84400600C7921
:0B00560000900000E4F0A3D8FCD9FAF1
:03000800758107F8
:0A000B00120093E582600302000377
:040093007582002250
:00000001FF