:03000000020003F8
:03005C0002005F40
:05005F0012008B80FE81
:0D00640075B00075A0007580007590002239
:02007100AA8261
:0500730010990280FB62
:030078008A992240
:0E007B00758920438780758BF3758DF375981A
:02008900522201
:03008B00120064FC
:05008E0012006480FB7C
:06003200E478FFF6D8FDA2
:080010007900E94400601B7A4D
:05001800009000977844
:03001D000075A0CB
:0A00200000E493F2A308B800020503
:08002A00A0D9F4DAF275A0FF81
:080038007800E84400600A7939
:030040000075A0A8
:0600430000E4F309D8FC03
:080049007800E84400600C7926
:0B00510000900000E4F0A3D8FCD9FAF6
:03000300758107FD
:0A000600120093E582600302005F20
:040093007582002250
:00000001FF
